{
  "_format": "hh-sol-artifact-1",
  "contractName": "CampaignFactory",
  "sourceName": "contracts/campagin.sol",
  "abi": [
    {
      "anonymous": false,
      "inputs": [
        {
          "indexed": false,
          "internalType": "string",
          "name": "title",
          "type": "string"
        },
        {
          "indexed": false,
          "internalType": "uint256",
          "name": "requiredAmount",
          "type": "uint256"
        },
        {
          "indexed": true,
          "internalType": "address",
          "name": "owner",
          "type": "address"
        },
        {
          "indexed": false,
          "internalType": "address",
          "name": "campaignAddress",
          "type": "address"
        },
        {
          "indexed": false,
          "internalType": "string",
          "name": "imgURL",
          "type": "string"
        },
        {
          "indexed": true,
          "internalType": "uint256",
          "name": "timestamp",
          "type": "uint256"
        },
        {
          "indexed": true,
          "internalType": "string",
          "name": "category",
          "type": "string"
        },
        {
          "indexed": false,
          "internalType": "bool",
          "name": "isActive",
          "type": "bool"
        }
      ],
      "name": "campaignCreated",
      "type": "event"
    },
    {
      "inputs": [
        {
          "internalType": "string",
          "name": "campaignTitle",
          "type": "string"
        },
        {
          "internalType": "uint256",
          "name": "requiredCampaignAmount",
          "type": "uint256"
        },
        {
          "internalType": "string",
          "name": "imgURL",
          "type": "string"
        },
        {
          "internalType": "string",
          "name": "category",
          "type": "string"
        },
        {
          "internalType": "string",
          "name": "storyURL",
          "type": "string"
        },
        {
          "internalType": "bool",
          "name": "isActive",
          "type": "bool"
        }
      ],
      "name": "createCampagin",
      "outputs": [],
      "stateMutability": "nonpayable",
      "type": "function"
    },
    {
      "inputs": [
        {
          "internalType": "uint256",
          "name": "",
          "type": "uint256"
        }
      ],
      "name": "deployedCampaigns",
      "outputs": [
        {
          "internalType": "address",
          "name": "",
          "type": "address"
        }
      ],
      "stateMutability": "view",
      "type": "function"
    }
  ],
  "bytecode": "0x608060405234801561001057600080fd5b50611903806100206000396000f3fe60806040523480156200001157600080fd5b50600436106200003a5760003560e01c8063339d50a5146200003f578063361e6d6c1462000075575b600080fd5b6200005d600480360381019062000057919062000256565b62000095565b6040516200006c9190620002cd565b60405180910390f35b6200009360048036038101906200008d919062000489565b620000d5565b005b60008181548110620000a657600080fd5b906000526020600020016000915054906101000a900473ffffffffffffffffffffffffffffffffffffffff1681565b6000868686853386604051620000eb90620001f9565b620000fc969594939291906200064c565b604051809103906000f08015801562000119573d6000803e3d6000fd5b5090506000819080600181540180825580915050600190039060005260206000200160009091909190916101000a81548173ffffffffffffffffffffffffffffffffffffffff021916908373ffffffffffffffffffffffffffffffffffffffff160217905550836040516200018f919062000710565b6040518091039020423373ffffffffffffffffffffffffffffffffffffffff167fc9a3ad254a094ec25ca92607645dde2885eec4eed3822a63fee167b7f6c407d78a8a868b89604051620001e895949392919062000729565b60405180910390a450505050505050565b611139806200079583390190565b6000604051905090565b600080fd5b600080fd5b6000819050919050565b62000230816200021b565b81146200023c57600080fd5b50565b600081359050620002508162000225565b92915050565b6000602082840312156200026f576200026e62000211565b5b60006200027f848285016200023f565b91505092915050565b600073ffffffffffffffffffffffffffffffffffffffff82169050919050565b6000620002b58262000288565b9050919050565b620002c781620002a8565b82525050565b6000602082019050620002e46000830184620002bc565b92915050565b600080fd5b600080fd5b6000601f19601f8301169050919050565b7f4e487b7100000000000000000000000000000000000000000000000000000000600052604160045260246000fd5b6200033f82620002f4565b810181811067ffffffffffffffff8211171562000361576200036062000305565b5b80604052505050565b60006200037662000207565b905062000384828262000334565b919050565b600067ffffffffffffffff821115620003a757620003a662000305565b5b620003b282620002f4565b9050602081019050919050565b82818337600083830152505050565b6000620003e5620003df8462000389565b6200036a565b905082815260208101848484011115620004045762000403620002ef565b5b62000411848285620003bf565b509392505050565b600082601f830112620004315762000430620002ea565b5b813562000443848260208601620003ce565b91505092915050565b60008115159050919050565b62000463816200044c565b81146200046f57600080fd5b50565b600081359050620004838162000458565b92915050565b60008060008060008060c08789031215620004a957620004a862000211565b5b600087013567ffffffffffffffff811115620004ca57620004c962000216565b5b620004d889828a0162000419565b9650506020620004eb89828a016200023f565b955050604087013567ffffffffffffffff8111156200050f576200050e62000216565b5b6200051d89828a0162000419565b945050606087013567ffffffffffffffff81111562000541576200054062000216565b5b6200054f89828a0162000419565b935050608087013567ffffffffffffffff81111562000573576200057262000216565b5b6200058189828a0162000419565b92505060a06200059489828a0162000472565b9150509295509295509295565b600081519050919050565b600082825260208201905092915050565b60005b83811015620005dd578082015181840152602081019050620005c0565b60008484015250505050565b6000620005f682620005a1565b620006028185620005ac565b935062000614818560208601620005bd565b6200061f81620002f4565b840191505092915050565b62000635816200021b565b82525050565b62000646816200044c565b82525050565b600060c0820190508181036000830152620006688189620005e9565b90506200067960208301886200062a565b81810360408301526200068d8187620005e9565b90508181036060830152620006a38186620005e9565b9050620006b46080830185620002bc565b620006c360a08301846200063b565b979650505050505050565b600081905092915050565b6000620006e682620005a1565b620006f28185620006ce565b935062000704818560208601620005bd565b80840191505092915050565b60006200071e8284620006d9565b915081905092915050565b600060a0820190508181036000830152620007458188620005e9565b90506200075660208301876200062a565b620007656040830186620002bc565b8181036060830152620007798185620005e9565b90506200078a60808301846200063b565b969550505050505056fe60806040523480156200001157600080fd5b50604051620011393803806200113983398181016040528101906200003791906200034b565b856000908162000048919062000685565b5084600181905550836002908162000061919062000685565b50826003908162000073919062000685565b5081600460006101000a81548173ffffffffffffffffffffffffffffffffffffffff021916908373ffffffffffffffffffffffffffffffffffffffff16021790555080600660006101000a81548160ff0219169083151502179055505050505050506200076c565b6000604051905090565b600080fd5b600080fd5b600080fd5b600080fd5b6000601f19601f8301169050919050565b7f4e487b7100000000000000000000000000000000000000000000000000000000600052604160045260246000fd5b6200014482620000f9565b810181811067ffffffffffffffff821117156200016657620001656200010a565b5b80604052505050565b60006200017b620000db565b905062000189828262000139565b919050565b600067ffffffffffffffff821115620001ac57620001ab6200010a565b5b620001b782620000f9565b9050602081019050919050565b60005b83811015620001e4578082015181840152602081019050620001c7565b60008484015250505050565b60006200020762000201846200018e565b6200016f565b905082815260208101848484011115620002265762000225620000f4565b5b62000233848285620001c4565b509392505050565b600082601f830112620002535762000252620000ef565b5b815162000265848260208601620001f0565b91505092915050565b6000819050919050565b62000283816200026e565b81146200028f57600080fd5b50565b600081519050620002a38162000278565b92915050565b600073ffffffffffffffffffffffffffffffffffffffff82169050919050565b6000620002d682620002a9565b9050919050565b620002e881620002c9565b8114620002f457600080fd5b50565b6000815190506200030881620002dd565b92915050565b60008115159050919050565b62000325816200030e565b81146200033157600080fd5b50565b60008151905062000345816200031a565b92915050565b60008060008060008060c087890312156200036b576200036a620000e5565b5b600087015167ffffffffffffffff8111156200038c576200038b620000ea565b5b6200039a89828a016200023b565b9650506020620003ad89828a0162000292565b955050604087015167ffffffffffffffff811115620003d157620003d0620000ea565b5b620003df89828a016200023b565b945050606087015167ffffffffffffffff811115620004035762000402620000ea565b5b6200041189828a016200023b565b93505060806200042489828a01620002f7565b92505060a06200043789828a0162000334565b9150509295509295509295565b600081519050919050565b7f4e487b7100000000000000000000000000000000000000000000000000000000600052602260045260246000fd5b600060028204905060018216806200049757607f821691505b602082108103620004ad57620004ac6200044f565b5b50919050565b60008190508160005260206000209050919050565b60006020601f8301049050919050565b600082821b905092915050565b600060088302620005177fffffffffffffffffffffffffffffffffffffffffffffffffffffffffffffffff82620004d8565b620005238683620004d8565b95508019841693508086168417925050509392505050565b6000819050919050565b600062000566620005606200055a846200026e565b6200053b565b6200026e565b9050919050565b6000819050919050565b620005828362000545565b6200059a62000591826200056d565b848454620004e5565b825550505050565b600090565b620005b1620005a2565b620005be81848462000577565b505050565b5b81811015620005e657620005da600082620005a7565b600181019050620005c4565b5050565b601f8211156200063557620005ff81620004b3565b6200060a84620004c8565b810160208510156200061a578190505b620006326200062985620004c8565b830182620005c3565b50505b505050565b600082821c905092915050565b60006200065a600019846008026200063a565b1980831691505092915050565b600062000675838362000647565b9150826002028217905092915050565b620006908262000444565b67ffffffffffffffff811115620006ac57620006ab6200010a565b5b620006b882546200047e565b620006c5828285620005ea565b600060209050601f831160018114620006fd5760008415620006e8578287015190505b620006f4858262000667565b86555062000764565b601f1984166200070d86620004b3565b60005b82811015620007375784890151825560018201915060208501945060208101905062000710565b8683101562000757578489015162000753601f89168262000647565b8355505b6001600288020188555050505b505050505050565b6109bd806200077c6000396000f3fe6080604052600436106100865760003560e01c80638da5cb5b116100595780638da5cb5b146101375780639632e72014610162578063c02857bd1461018d578063ed88c68e146101a4578063f3ccaac0146101ae57610086565b806322f3e2d41461008b57806346c922d1146100b657806348b9ef40146100e15780634a79d50c1461010c575b600080fd5b34801561009757600080fd5b506100a06101d9565b6040516100ad91906105fd565b60405180910390f35b3480156100c257600080fd5b506100cb6101ec565b6040516100d891906106a8565b60405180910390f35b3480156100ed57600080fd5b506100f661027a565b60405161010391906106e3565b60405180910390f35b34801561011857600080fd5b50610121610280565b60405161012e91906106a8565b60405180910390f35b34801561014357600080fd5b5061014c61030e565b604051610159919061073f565b60405180910390f35b34801561016e57600080fd5b50610177610334565b60405161018491906106e3565b60405180910390f35b34801561019957600080fd5b506101a261033a565b005b6101ac6103f6565b005b3480156101ba57600080fd5b506101c3610554565b6040516101d091906106a8565b60405180910390f35b600660009054906101000a900460ff1681565b600380546101f990610789565b80601f016020809104026020016040519081016040528092919081815260200182805461022590610789565b80156102725780601f1061024757610100808354040283529160200191610272565b820191906000526020600020905b81548152906001019060200180831161025557829003601f168201915b505050505081565b60015481565b6000805461028d90610789565b80601f01602080910402602001604051908101604052809291908181526020018280546102b990610789565b80156103065780601f106102db57610100808354040283529160200191610306565b820191906000526020600020905b8154815290600101906020018083116102e957829003601f168201915b505050505081565b600460009054906101000a900473ffffffffffffffffffffffffffffffffffffffff1681565b60055481565b600460009054906101000a900473ffffffffffffffffffffffffffffffffffffffff1673ffffffffffffffffffffffffffffffffffffffff163373ffffffffffffffffffffffffffffffffffffffff16146103ca576040517f08c379a00000000000000000000000000000000000000000000000000000000081526004016103c19061082c565b60405180910390fd5b600660009054906101000a900460ff1615600660006101000a81548160ff021916908315150217905550565b600660009054906101000a900460ff16610445576040517f08c379a000000000000000000000000000000000000000000000000000000000815260040161043c90610898565b60405180910390fd5b6005546001541161048b576040517f08c379a000000000000000000000000000000000000000000000000000000000815260040161048290610904565b60405180910390fd5b600460009054906101000a900473ffffffffffffffffffffffffffffffffffffffff1673ffffffffffffffffffffffffffffffffffffffff166108fc349081150290604051600060405180830381858888f193505050501580156104f3573d6000803e3d6000fd5b5034600560008282546105069190610953565b9250508190555042343373ffffffffffffffffffffffffffffffffffffffff167fe6add99d06d9ad7fc456e746aa162eed6211c5002ef2dacdd67b8d2016822fba60405160405180910390a4565b6002805461056190610789565b80601f016020809104026020016040519081016040528092919081815260200182805461058d90610789565b80156105da5780601f106105af576101008083540402835291602001916105da565b820191906000526020600020905b8154815290600101906020018083116105bd57829003601f168201915b505050505081565b60008115159050919050565b6105f7816105e2565b82525050565b600060208201905061061260008301846105ee565b92915050565b600081519050919050565b600082825260208201905092915050565b60005b83811015610652578082015181840152602081019050610637565b60008484015250505050565b6000601f19601f8301169050919050565b600061067a82610618565b6106848185610623565b9350610694818560208601610634565b61069d8161065e565b840191505092915050565b600060208201905081810360008301526106c2818461066f565b905092915050565b6000819050919050565b6106dd816106ca565b82525050565b60006020820190506106f860008301846106d4565b92915050565b600073ffffffffffffffffffffffffffffffffffffffff82169050919050565b6000610729826106fe565b9050919050565b6107398161071e565b82525050565b60006020820190506107546000830184610730565b92915050565b7f4e487b7100000000000000000000000000000000000000000000000000000000600052602260045260246000fd5b600060028204905060018216806107a157607f821691505b6020821081036107b4576107b361075a565b5b50919050565b7f4f6e6c7920746865206f776e65722063616e20746f67676c652074686520636160008201527f6d706169676e2073746174757300000000000000000000000000000000000000602082015250565b6000610816602d83610623565b9150610821826107ba565b604082019050919050565b6000602082019050818103600083015261084581610809565b9050919050565b7f43616d706169676e20697320696e616374697665000000000000000000000000600082015250565b6000610882601483610623565b915061088d8261084c565b602082019050919050565b600060208201905081810360008301526108b181610875565b9050919050565b7f726571756972657320616d6f756e742066756c6c66696c6c6564000000000000600082015250565b60006108ee601a83610623565b91506108f9826108b8565b602082019050919050565b6000602082019050818103600083015261091d816108e1565b9050919050565b7f4e487b7100000000000000000000000000000000000000000000000000000000600052601160045260246000fd5b600061095e826106ca565b9150610969836106ca565b925082820190508082111561098157610980610924565b5b9291505056fea26469706673582212206191e4ef31930e6b36d5d3ac611f003b7b0385d53dcecf2b063d79facb66489a64736f6c63430008110033a2646970667358221220e7873bbf09ed8e899a987b48ccc41c57c49607558c9c870e3968abb33a83700864736f6c63430008110033",
  "linkReferences": {},
  "deployedLinkReferences": {}
}