{
  "_format": "hh-sol-artifact-1",
  "contractName": "Campaign",
  "sourceName": "contracts/campagin.sol",
  "abi": [
    {
      "inputs": [
        {
          "internalType": "string",
          "name": "campaignTitle",
          "type": "string"
        },
        {
          "internalType": "uint256",
          "name": "requiredCampaignAmount",
          "type": "uint256"
        },
        {
          "internalType": "string",
          "name": "imgURL",
          "type": "string"
        },
        {
          "internalType": "string",
          "name": "storyURL",
          "type": "string"
        },
        {
          "internalType": "address",
          "name": "campaignOwner",
          "type": "address"
        },
        {
          "internalType": "bool",
          "name": "initialIsActive",
          "type": "bool"
        }
      ],
      "stateMutability": "nonpayable",
      "type": "constructor"
    },
    {
      "anonymous": false,
      "inputs": [
        {
          "indexed": true,
          "internalType": "address",
          "name": "donar",
          "type": "address"
        },
        {
          "indexed": true,
          "internalType": "uint256",
          "name": "amount",
          "type": "uint256"
        },
        {
          "indexed": true,
          "internalType": "uint256",
          "name": "timestamp",
          "type": "uint256"
        }
      ],
      "name": "donated",
      "type": "event"
    },
    {
      "inputs": [],
      "name": "donate",
      "outputs": [],
      "stateMutability": "payable",
      "type": "function"
    },
    {
      "inputs": [],
      "name": "image",
      "outputs": [
        {
          "internalType": "string",
          "name": "",
          "type": "string"
        }
      ],
      "stateMutability": "view",
      "type": "function"
    },
    {
      "inputs": [],
      "name": "isActive",
      "outputs": [
        {
          "internalType": "bool",
          "name": "",
          "type": "bool"
        }
      ],
      "stateMutability": "view",
      "type": "function"
    },
    {
      "inputs": [],
      "name": "owner",
      "outputs": [
        {
          "internalType": "address payable",
          "name": "",
          "type": "address"
        }
      ],
      "stateMutability": "view",
      "type": "function"
    },
    {
      "inputs": [],
      "name": "receivedAmount",
      "outputs": [
        {
          "internalType": "uint256",
          "name": "",
          "type": "uint256"
        }
      ],
      "stateMutability": "view",
      "type": "function"
    },
    {
      "inputs": [],
      "name": "requiredAmount",
      "outputs": [
        {
          "internalType": "uint256",
          "name": "",
          "type": "uint256"
        }
      ],
      "stateMutability": "view",
      "type": "function"
    },
    {
      "inputs": [],
      "name": "story",
      "outputs": [
        {
          "internalType": "string",
          "name": "",
          "type": "string"
        }
      ],
      "stateMutability": "view",
      "type": "function"
    },
    {
      "inputs": [],
      "name": "title",
      "outputs": [
        {
          "internalType": "string",
          "name": "",
          "type": "string"
        }
      ],
      "stateMutability": "view",
      "type": "function"
    },
    {
      "inputs": [],
      "name": "toggleStatus",
      "outputs": [],
      "stateMutability": "nonpayable",
      "type": "function"
    }
  ],
  "bytecode": "0x60806040523480156200001157600080fd5b50604051620011393803806200113983398181016040528101906200003791906200034b565b856000908162000048919062000685565b5084600181905550836002908162000061919062000685565b50826003908162000073919062000685565b5081600460006101000a81548173ffffffffffffffffffffffffffffffffffffffff021916908373ffffffffffffffffffffffffffffffffffffffff16021790555080600660006101000a81548160ff0219169083151502179055505050505050506200076c565b6000604051905090565b600080fd5b600080fd5b600080fd5b600080fd5b6000601f19601f8301169050919050565b7f4e487b7100000000000000000000000000000000000000000000000000000000600052604160045260246000fd5b6200014482620000f9565b810181811067ffffffffffffffff821117156200016657620001656200010a565b5b80604052505050565b60006200017b620000db565b905062000189828262000139565b919050565b600067ffffffffffffffff821115620001ac57620001ab6200010a565b5b620001b782620000f9565b9050602081019050919050565b60005b83811015620001e4578082015181840152602081019050620001c7565b60008484015250505050565b60006200020762000201846200018e565b6200016f565b905082815260208101848484011115620002265762000225620000f4565b5b62000233848285620001c4565b509392505050565b600082601f830112620002535762000252620000ef565b5b815162000265848260208601620001f0565b91505092915050565b6000819050919050565b62000283816200026e565b81146200028f57600080fd5b50565b600081519050620002a38162000278565b92915050565b600073ffffffffffffffffffffffffffffffffffffffff82169050919050565b6000620002d682620002a9565b9050919050565b620002e881620002c9565b8114620002f457600080fd5b50565b6000815190506200030881620002dd565b92915050565b60008115159050919050565b62000325816200030e565b81146200033157600080fd5b50565b60008151905062000345816200031a565b92915050565b60008060008060008060c087890312156200036b576200036a620000e5565b5b600087015167ffffffffffffffff8111156200038c576200038b620000ea565b5b6200039a89828a016200023b565b9650506020620003ad89828a0162000292565b955050604087015167ffffffffffffffff811115620003d157620003d0620000ea565b5b620003df89828a016200023b565b945050606087015167ffffffffffffffff811115620004035762000402620000ea565b5b6200041189828a016200023b565b93505060806200042489828a01620002f7565b92505060a06200043789828a0162000334565b9150509295509295509295565b600081519050919050565b7f4e487b7100000000000000000000000000000000000000000000000000000000600052602260045260246000fd5b600060028204905060018216806200049757607f821691505b602082108103620004ad57620004ac6200044f565b5b50919050565b60008190508160005260206000209050919050565b60006020601f8301049050919050565b600082821b905092915050565b600060088302620005177fffffffffffffffffffffffffffffffffffffffffffffffffffffffffffffffff82620004d8565b620005238683620004d8565b95508019841693508086168417925050509392505050565b6000819050919050565b600062000566620005606200055a846200026e565b6200053b565b6200026e565b9050919050565b6000819050919050565b620005828362000545565b6200059a62000591826200056d565b848454620004e5565b825550505050565b600090565b620005b1620005a2565b620005be81848462000577565b505050565b5b81811015620005e657620005da600082620005a7565b600181019050620005c4565b5050565b601f8211156200063557620005ff81620004b3565b6200060a84620004c8565b810160208510156200061a578190505b620006326200062985620004c8565b830182620005c3565b50505b505050565b600082821c905092915050565b60006200065a600019846008026200063a565b1980831691505092915050565b600062000675838362000647565b9150826002028217905092915050565b620006908262000444565b67ffffffffffffffff811115620006ac57620006ab6200010a565b5b620006b882546200047e565b620006c5828285620005ea565b600060209050601f831160018114620006fd5760008415620006e8578287015190505b620006f4858262000667565b86555062000764565b601f1984166200070d86620004b3565b60005b82811015620007375784890151825560018201915060208501945060208101905062000710565b8683101562000757578489015162000753601f89168262000647565b8355505b6001600288020188555050505b505050505050565b6109bd806200077c6000396000f3fe6080604052600436106100865760003560e01c80638da5cb5b116100595780638da5cb5b146101375780639632e72014610162578063c02857bd1461018d578063ed88c68e146101a4578063f3ccaac0146101ae57610086565b806322f3e2d41461008b57806346c922d1146100b657806348b9ef40146100e15780634a79d50c1461010c575b600080fd5b34801561009757600080fd5b506100a06101d9565b6040516100ad91906105fd565b60405180910390f35b3480156100c257600080fd5b506100cb6101ec565b6040516100d891906106a8565b60405180910390f35b3480156100ed57600080fd5b506100f661027a565b60405161010391906106e3565b60405180910390f35b34801561011857600080fd5b50610121610280565b60405161012e91906106a8565b60405180910390f35b34801561014357600080fd5b5061014c61030e565b604051610159919061073f565b60405180910390f35b34801561016e57600080fd5b50610177610334565b60405161018491906106e3565b60405180910390f35b34801561019957600080fd5b506101a261033a565b005b6101ac6103f6565b005b3480156101ba57600080fd5b506101c3610554565b6040516101d091906106a8565b60405180910390f35b600660009054906101000a900460ff1681565b600380546101f990610789565b80601f016020809104026020016040519081016040528092919081815260200182805461022590610789565b80156102725780601f1061024757610100808354040283529160200191610272565b820191906000526020600020905b81548152906001019060200180831161025557829003601f168201915b505050505081565b60015481565b6000805461028d90610789565b80601f01602080910402602001604051908101604052809291908181526020018280546102b990610789565b80156103065780601f106102db57610100808354040283529160200191610306565b820191906000526020600020905b8154815290600101906020018083116102e957829003601f168201915b505050505081565b600460009054906101000a900473ffffffffffffffffffffffffffffffffffffffff1681565b60055481565b600460009054906101000a900473ffffffffffffffffffffffffffffffffffffffff1673ffffffffffffffffffffffffffffffffffffffff163373ffffffffffffffffffffffffffffffffffffffff16146103ca576040517f08c379a00000000000000000000000000000000000000000000000000000000081526004016103c19061082c565b60405180910390fd5b600660009054906101000a900460ff1615600660006101000a81548160ff021916908315150217905550565b600660009054906101000a900460ff16610445576040517f08c379a000000000000000000000000000000000000000000000000000000000815260040161043c90610898565b60405180910390fd5b6005546001541161048b576040517f08c379a000000000000000000000000000000000000000000000000000000000815260040161048290610904565b60405180910390fd5b600460009054906101000a900473ffffffffffffffffffffffffffffffffffffffff1673ffffffffffffffffffffffffffffffffffffffff166108fc349081150290604051600060405180830381858888f193505050501580156104f3573d6000803e3d6000fd5b5034600560008282546105069190610953565b9250508190555042343373ffffffffffffffffffffffffffffffffffffffff167fe6add99d06d9ad7fc456e746aa162eed6211c5002ef2dacdd67b8d2016822fba60405160405180910390a4565b6002805461056190610789565b80601f016020809104026020016040519081016040528092919081815260200182805461058d90610789565b80156105da5780601f106105af576101008083540402835291602001916105da565b820191906000526020600020905b8154815290600101906020018083116105bd57829003601f168201915b505050505081565b60008115159050919050565b6105f7816105e2565b82525050565b600060208201905061061260008301846105ee565b92915050565b600081519050919050565b600082825260208201905092915050565b60005b83811015610652578082015181840152602081019050610637565b60008484015250505050565b6000601f19601f8301169050919050565b600061067a82610618565b6106848185610623565b9350610694818560208601610634565b61069d8161065e565b840191505092915050565b600060208201905081810360008301526106c2818461066f565b905092915050565b6000819050919050565b6106dd816106ca565b82525050565b60006020820190506106f860008301846106d4565b92915050565b600073ffffffffffffffffffffffffffffffffffffffff82169050919050565b6000610729826106fe565b9050919050565b6107398161071e565b82525050565b60006020820190506107546000830184610730565b92915050565b7f4e487b7100000000000000000000000000000000000000000000000000000000600052602260045260246000fd5b600060028204905060018216806107a157607f821691505b6020821081036107b4576107b361075a565b5b50919050565b7f4f6e6c7920746865206f776e65722063616e20746f67676c652074686520636160008201527f6d706169676e2073746174757300000000000000000000000000000000000000602082015250565b6000610816602d83610623565b9150610821826107ba565b604082019050919050565b6000602082019050818103600083015261084581610809565b9050919050565b7f43616d706169676e20697320696e616374697665000000000000000000000000600082015250565b6000610882601483610623565b915061088d8261084c565b602082019050919050565b600060208201905081810360008301526108b181610875565b9050919050565b7f726571756972657320616d6f756e742066756c6c66696c6c6564000000000000600082015250565b60006108ee601a83610623565b91506108f9826108b8565b602082019050919050565b6000602082019050818103600083015261091d816108e1565b9050919050565b7f4e487b7100000000000000000000000000000000000000000000000000000000600052601160045260246000fd5b600061095e826106ca565b9150610969836106ca565b925082820190508082111561098157610980610924565b5b9291505056fea26469706673582212206191e4ef31930e6b36d5d3ac611f003b7b0385d53dcecf2b063d79facb66489a64736f6c63430008110033",
  "linkReferences": {},
  "deployedLinkReferences": {}
}